{
  "contractName": "splitwise",
  "abi": [
    {
      "inputs": [
        {
          "internalType": "address",
          "name": "",
          "type": "address"
        },
        {
          "internalType": "address",
          "name": "",
          "type": "address"
        }
      ],
      "name": "amountOwed",
      "outputs": [
        {
          "internalType": "int32",
          "name": "",
          "type": "int32"
        }
      ],
      "stateMutability": "view",
      "type": "function",
      "constant": true
    },
    {
      "inputs": [
        {
          "internalType": "uint256",
          "name": "",
          "type": "uint256"
        }
      ],
      "name": "splitwiseUsers",
      "outputs": [
        {
          "internalType": "address",
          "name": "",
          "type": "address"
        }
      ],
      "stateMutability": "view",
      "type": "function",
      "constant": true
    },
    {
      "inputs": [
        {
          "internalType": "address",
          "name": "debtor",
          "type": "address"
        },
        {
          "internalType": "address",
          "name": "creditor",
          "type": "address"
        }
      ],
      "name": "lookup",
      "outputs": [
        {
          "internalType": "int32",
          "name": "ret",
          "type": "int32"
        }
      ],
      "stateMutability": "view",
      "type": "function",
      "constant": true
    },
    {
      "inputs": [
        {
          "internalType": "address",
          "name": "creditor",
          "type": "address"
        },
        {
          "internalType": "int32",
          "name": "amount",
          "type": "int32"
        }
      ],
      "name": "add_IOU",
      "outputs": [],
      "stateMutability": "nonpayable",
      "type": "function"
    },
    {
      "inputs": [
        {
          "internalType": "address",
          "name": "debtor",
          "type": "address"
        },
        {
          "internalType": "address",
          "name": "creditor",
          "type": "address"
        },
        {
          "internalType": "int32",
          "name": "amount",
          "type": "int32"
        }
      ],
      "name": "addDebt",
      "outputs": [],
      "stateMutability": "nonpayable",
      "type": "function"
    },
    {
      "inputs": [],
      "name": "getUsers",
      "outputs": [
        {
          "internalType": "address[]",
          "name": "ret",
          "type": "address[]"
        }
      ],
      "stateMutability": "view",
      "type": "function",
      "constant": true
    }
  ],
  "bytecode": "0x608060405234801561001057600080fd5b5061059e806100206000396000f3fe608060405234801561001057600080fd5b50600436106100615760003560e01c8062ce8e3e146100665780632907e51214610084578063713584a6146100a4578063ada187c4146100b7578063f25c36b2146100cc578063fe95a268146100ec575b600080fd5b61006e6100ff565b60405161007b9190610494565b60405180910390f35b6100976100923660046103cb565b6101f1565b60405161007b91906104e1565b6100976100b23660046103cb565b61020e565b6100ca6100c536600461043f565b61023a565b005b6100df6100da366004610468565b610249565b60405161007b9190610480565b6100ca6100fa3660046103fd565b610273565b60015460609067ffffffffffffffff81111561012b57634e487b7160e01b600052604160045260246000fd5b604051908082528060200260200182016040528015610154578160200160208202803683370190505b50905060005b6001548110156101ed576001818154811061018557634e487b7160e01b600052603260045260246000fd5b9060005260206000200160009054906101000a90046001600160a01b03168282815181106101c357634e487b7160e01b600052603260045260246000fd5b6001600160a01b0390921660209283029190910190910152806101e581610537565b91505061015a565b5090565b600060208181529281526040808220909352908152205460030b81565b6001600160a01b0391821660009081526020818152604080832093909416825291909152205460030b90565b610245338383610273565b5050565b6001818154811061025957600080fd5b6000918252602090912001546001600160a01b0316905081565b6001600160a01b03808416600090815260208181526040808320938616835292905290812080548392906102ab90849060030b6104ef565b92506101000a81548163ffffffff021916908360030b63ffffffff1602179055506102d5826102e3565b6102de836102e3565b505050565b60005b60015481101561034e57816001600160a01b03166001828154811061031b57634e487b7160e01b600052603260045260246000fd5b6000918252602090912001546001600160a01b0316141561033c575061039a565b8061034681610537565b9150506102e6565b506001805480820182556000919091527fb10e2d527612073b26eecdfd717e6a320cf44b4afac2b0732d9fcbe2b7fa0cf60180546001600160a01b0319166001600160a01b0383161790555b50565b80356001600160a01b03811681146103b457600080fd5b919050565b8035600381900b81146103b457600080fd5b600080604083850312156103dd578182fd5b6103e68361039d565b91506103f46020840161039d565b90509250929050565b600080600060608486031215610411578081fd5b61041a8461039d565b92506104286020850161039d565b9150610436604085016103b9565b90509250925092565b60008060408385031215610451578182fd5b61045a8361039d565b91506103f4602084016103b9565b600060208284031215610479578081fd5b5035919050565b6001600160a01b0391909116815260200190565b6020808252825182820181905260009190848201906040850190845b818110156104d55783516001600160a01b0316835292840192918401916001016104b0565b50909695505050505050565b60039190910b815260200190565b60008160030b8360030b82821282637fffffff0382138115161561051557610515610552565b82637fffffff1903821281161561052e5761052e610552565b50019392505050565b600060001982141561054b5761054b610552565b5060010190565b634e487b7160e01b600052601160045260246000fdfea264697066735822122020727f2b5d3e58b94cd1ed7e2943dc3e93dc4a968b589982a6e1c1d97340e83264736f6c63430008000033",
  "immutableReferences": {},
  "source": "// SPDX-License-Identifier: MIT\npragma solidity ^0.8.0;\n\n//A decentralized app to keep track of who owes who money within a group of people\ncontract splitwise {\n    mapping(address => mapping (address => int32)) public amountOwed; \n\n    address[] public splitwiseUsers;\n\n    //function lookup to know the amount the debtor owes the creditor\n    function lookup(address debtor, address creditor) public view returns (int32 ret){\n        ret = amountOwed[debtor][creditor];\n      }\n    \n    //function add_IOU add more money owed to the creditor\n    function add_IOU(address creditor, int32 amount) public{\n        addDebt(msg.sender, creditor, amount);\n      }\n\n    //function to add to the amount the debtor owes the creditor and also add as users\n    function addDebt(address debtor, address creditor , int32 amount) public{\n        amountOwed[debtor][creditor] += amount;\n        addToUsers(creditor);\n        addToUsers(debtor);\n      }\n\n    //function to add users  \n    function addToUsers(address add) private{\n        for (uint i = 0; i < splitwiseUsers.length; i++){\n            if (splitwiseUsers[i] == add)\n            return;\n            }\n        splitwiseUsers.push(add);\n      }\n    \n    //function to get users\n    function getUsers() public view returns (address[] memory ret){\n        ret = new address[](splitwiseUsers.length);\n        for (uint i = 0; i < splitwiseUsers.length; i++){\n            ret[i] = splitwiseUsers[i];\n        }\n    }\n}",
  "sourcePath": "/Users/victoriaolatunji/Blockchain DEV/truffle/contracts/blockchainSplitwise.sol",
  "compiler": {
    "name": "solc",
    "version": "0.8.0+commit.c7dfd78e.Emscripten.clang"
  },
  "schemaVersion": "3.4.11",
  "updatedAt": "2023-01-12T20:07:34.586Z",
  "networkType": "ethereum",
  "devdoc": {
    "kind": "dev",
    "methods": {},
    "version": 1
  },
  "userdoc": {
    "kind": "user",
    "methods": {},
    "version": 1
  }
}